{
  "contractName": "SimpleStorage",
  "abi": [
    {
      "anonymous": false,
      "inputs": [
        {
          "indexed": false,
          "internalType": "string",
          "name": "operation",
          "type": "string"
        },
        {
          "indexed": false,
          "internalType": "uint256",
          "name": "data",
          "type": "uint256"
        }
      ],
      "name": "Log",
      "type": "event"
    },
    {
      "inputs": [],
      "name": "storedData",
      "outputs": [
        {
          "internalType": "uint256",
          "name": "",
          "type": "uint256"
        }
      ],
      "stateMutability": "view",
      "type": "function",
      "constant": true
    },
    {
      "inputs": [
        {
          "internalType": "uint256",
          "name": "x",
          "type": "uint256"
        }
      ],
      "name": "set",
      "outputs": [],
      "stateMutability": "nonpayable",
      "type": "function"
    },
    {
      "inputs": [],
      "name": "get",
      "outputs": [
        {
          "internalType": "uint256",
          "name": "",
          "type": "uint256"
        }
      ],
      "stateMutability": "view",
      "type": "function",
      "constant": true
    }
  ],
  "bytecode": "0x608060405234801561001057600080fd5b50610243806100206000396000f3fe608060405234801561001057600080fd5b50600436106100415760003560e01c80632a1afcd91461004657806360fe47b1146100645780636d4ce63c14610080575b600080fd5b61004e61009e565b60405161005b9190610109565b60405180910390f35b61007e60048036038101906100799190610155565b6100a4565b005b6100886100e7565b6040516100959190610109565b60405180910390f35b60005481565b806000819055507fdd970dd9b5bfe707922155b058a407655cb18288b807e2216442bca8ad83d6b56000546040516100dc91906101df565b60405180910390a150565b60008054905090565b6000819050919050565b610103816100f0565b82525050565b600060208201905061011e60008301846100fa565b92915050565b600080fd5b610132816100f0565b811461013d57600080fd5b50565b60008135905061014f81610129565b92915050565b60006020828403121561016b5761016a610124565b5b600061017984828501610140565b91505092915050565b600082825260208201905092915050565b7f7365745f6f7065726174696f6e00000000000000000000000000000000000000600082015250565b60006101c9600d83610182565b91506101d482610193565b602082019050919050565b600060408201905081810360008301526101f8816101bc565b905061020760208301846100fa565b9291505056fea2646970667358221220a3e83e369cc9f7153ff6d1b33666a02fa164a076796b2a44222ba69c0801b24a64736f6c634300080b0033",
  "immutableReferences": {},
  "source": "// SPDX-License-Identifier: MIT\n// pragma solidity >=0.4.21 <8.10.0;\npragma solidity >=0.4.22 <0.9.0;\n\ncontract SimpleStorage {\n    uint256 public storedData;\n    event Log(string operation, uint256 data);\n\n    function set(uint256 x) public {\n        storedData = x;\n        emit Log(\"set_operation\", storedData);\n    }\n\n    function get() public view returns (uint256) {\n        return storedData;\n    }\n}\n",
  "sourcePath": "/usr/src/app/Web3/truffle/react-truffle/contracts/SimpleStorage.sol",
  "compiler": {
    "name": "solc",
    "version": "0.8.11+commit.d7f03943.Emscripten.clang"
  },
  "schemaVersion": "3.4.4",
  "updatedAt": "2022-02-09T06:50:32.966Z",
  "networkType": "ethereum",
  "devdoc": {
    "kind": "dev",
    "methods": {},
    "version": 1
  },
  "userdoc": {
    "kind": "user",
    "methods": {},
    "version": 1
  }
}